{
  "contractName": "Bikes",
  "abi": [
    {
      "constant": true,
      "inputs": [],
      "name": "name",
      "outputs": [
        {
          "name": "",
          "type": "string"
        }
      ],
      "payable": false,
      "stateMutability": "view",
      "type": "function"
    },
    {
      "constant": true,
      "inputs": [],
      "name": "storeOwner",
      "outputs": [
        {
          "name": "",
          "type": "address"
        }
      ],
      "payable": false,
      "stateMutability": "view",
      "type": "function"
    },
    {
      "inputs": [],
      "payable": false,
      "stateMutability": "nonpayable",
      "type": "constructor"
    },
    {
      "constant": false,
      "inputs": [
        {
          "name": "_mfg",
          "type": "string"
        },
        {
          "name": "_sn",
          "type": "string"
        }
      ],
      "name": "setBike_rec",
      "outputs": [
        {
          "name": "_recNum",
          "type": "uint256"
        }
      ],
      "payable": false,
      "stateMutability": "nonpayable",
      "type": "function"
    },
    {
      "constant": true,
      "inputs": [
        {
          "name": "_recNum",
          "type": "uint256"
        }
      ],
      "name": "getBike_rec",
      "outputs": [
        {
          "name": "",
          "type": "address"
        },
        {
          "name": "",
          "type": "string"
        },
        {
          "name": "",
          "type": "string"
        }
      ],
      "payable": false,
      "stateMutability": "view",
      "type": "function"
    },
    {
      "constant": false,
      "inputs": [
        {
          "name": "_to",
          "type": "address"
        },
        {
          "name": "_recNum",
          "type": "uint256"
        }
      ],
      "name": "transfer",
      "outputs": [
        {
          "name": "",
          "type": "address"
        },
        {
          "name": "",
          "type": "string"
        },
        {
          "name": "",
          "type": "string"
        },
        {
          "name": "",
          "type": "bool"
        }
      ],
      "payable": false,
      "stateMutability": "nonpayable",
      "type": "function"
    },
    {
      "constant": true,
      "inputs": [
        {
          "name": "_to",
          "type": "address"
        },
        {
          "name": "_recNum",
          "type": "uint256"
        }
      ],
      "name": "isPersonOwner",
      "outputs": [
        {
          "name": "",
          "type": "bool"
        }
      ],
      "payable": false,
      "stateMutability": "view",
      "type": "function"
    },
    {
      "constant": true,
      "inputs": [],
      "name": "getBikesCount",
      "outputs": [
        {
          "name": "",
          "type": "uint256"
        }
      ],
      "payable": false,
      "stateMutability": "view",
      "type": "function"
    }
  ],
  "bytecode": "0x60806040526040805190810160405280600b81526020017f426963796c65204c6973740000000000000000000000000000000000000000008152506000908051906020019061004f9291906100ab565b5034801561005c57600080fd5b5033600160006101000a81548173ffffffffffffffffffffffffffffffffffffffff021916908373ffffffffffffffffffffffffffffffffffffffff1602179055506000600281905550610150565b828054600181600116156101000203166002900490600052602060002090601f016020900481019282601f106100ec57805160ff191683800117855561011a565b8280016001018555821561011a579182015b828111156101195782518255916020019190600101906100fe565b5b509050610127919061012b565b5090565b61014d91905b80821115610149576000816000905550600101610131565b5090565b90565b610ed28061015f6000396000f300608060405260043610610083576000357c0100000000000000000000000000000000000000000000000000000000900463ffffffff16806306fdde0314610088578063269308741461011857806336dc033d146101435780633e06d094146101aa578063818fb3e01461020f5780639f13621d14610266578063a9059cbb146103ab575b600080fd5b34801561009457600080fd5b5061009d61051b565b6040518080602001828103825283818151815260200191508051906020019080838360005b838110156100dd5780820151818401526020810190506100c2565b50505050905090810190601f16801561010a5780820380516001836020036101000a031916815260200191505b509250505060405180910390f35b34801561012457600080fd5b5061012d6105b9565b6040518082815260200191505060405180910390f35b34801561014f57600080fd5b506101946004803603810190808035906020019082018035906020019190919293919293908035906020019082018035906020019190919293919293905050506105c3565b6040518082815260200191505060405180910390f35b3480156101b657600080fd5b506101f5600480360381019080803573ffffffffffffffffffffffffffffffffffffffff16906020019092919080359060200190929190505050610712565b604051808215151515815260200191505060405180910390f35b34801561021b57600080fd5b5061022461093a565b604051808273ffffffffffffffffffffffffffffffffffffffff1673ffffffffffffffffffffffffffffffffffffffff16815260200191505060405180910390f35b34801561027257600080fd5b5061029160048036038101908080359060200190929190505050610960565b604051808473ffffffffffffffffffffffffffffffffffffffff1673ffffffffffffffffffffffffffffffffffffffff1681526020018060200180602001838103835285818151815260200191508051906020019080838360005b838110156103075780820151818401526020810190506102ec565b50505050905090810190601f1680156103345780820380516001836020036101000a031916815260200191505b50838103825284818151815260200191508051906020019080838360005b8381101561036d578082015181840152602081019050610352565b50505050905090810190601f16801561039a5780820380516001836020036101000a031916815260200191505b509550505050505060405180910390f35b3480156103b757600080fd5b506103f6600480360381019080803573ffffffffffffffffffffffffffffffffffffffff16906020019092919080359060200190929190505050610b5c565b604051808573ffffffffffffffffffffffffffffffffffffffff1673ffffffffffffffffffffffffffffffffffffffff168152602001806020018060200184151515158152602001838103835286818151815260200191508051906020019080838360005b8381101561047657808201518184015260208101905061045b565b50505050905090810190601f1680156104a35780820380516001836020036101000a031916815260200191505b50838103825285818151815260200191508051906020019080838360005b838110156104dc5780820151818401526020810190506104c1565b50505050905090810190601f1680156105095780820380516001836020036101000a031916815260200191505b50965050505050505060405180910390f35b60008054600181600116156101000203166002900480601f0160208091040260200160405190810160405280929190818152602001828054600181600116156101000203166002900480156105b15780601f10610586576101008083540402835291602001916105b1565b820191906000526020600020905b81548152906001019060200180831161059457829003601f168201915b505050505081565b6000600254905090565b600080600260008154809291906001019190505590506060604051908101604052803373ffffffffffffffffffffffffffffffffffffffff16815260200187878080601f016020809104026020016040519081016040528093929190818152602001838380828437820191505050505050815260200185858080601f0160208091040260200160405190810160405280939291908181526020018383808284378201915050505050508152506003600083815260200190815260200160002060008201518160000160006101000a81548173ffffffffffffffffffffffffffffffffffffffff021916908373ffffffffffffffffffffffffffffffffffffffff16021790555060208201518160010190805190602001906106e5929190610dc9565b506040820151816002019080519060200190610702929190610dc9565b5090505080915050949350505050565b600061071c610e49565b6004805490508310156107325760009150610933565b60036000848152602001908152602001600020606060405190810160405290816000820160009054906101000a900473ffffffffffffffffffffffffffffffffffffffff1673ffffffffffffffffffffffffffffffffffffffff1673ffffffffffffffffffffffffffffffffffffffff168152602001600182018054600181600116156101000203166002900480601f0160208091040260200160405190810160405280929190818152602001828054600181600116156101000203166002900480156108405780601f1061081557610100808354040283529160200191610840565b820191906000526020600020905b81548152906001019060200180831161082357829003601f168201915b50505050508152602001600282018054600181600116156101000203166002900480601f0160208091040260200160405190810160405280929190818152602001828054600181600116156101000203166002900480156108e25780601f106108b7576101008083540402835291602001916108e2565b820191906000526020600020905b8154815290600101906020018083116108c557829003601f168201915b50505050508152505090508373ffffffffffffffffffffffffffffffffffffffff16816000015173ffffffffffffffffffffffffffffffffffffffff16141561092e5760019150610933565b600091505b5092915050565b600160009054906101000a900473ffffffffffffffffffffffffffffffffffffffff1681565b600060608061096d610e49565b600254851115151561097e57600080fd5b60036000868152602001908152602001600020606060405190810160405290816000820160009054906101000a900473ffffffffffffffffffffffffffffffffffffffff1673ffffffffffffffffffffffffffffffffffffffff1673ffffffffffffffffffffffffffffffffffffffff168152602001600182018054600181600116156101000203166002900480601f016020809104026020016040519081016040528092919081815260200182805460018160011615610100020316600290048015610a8c5780601f10610a6157610100808354040283529160200191610a8c565b820191906000526020600020905b815481529060010190602001808311610a6f57829003601f168201915b50505050508152602001600282018054600181600116156101000203166002900480601f016020809104026020016040519081016040528092919081815260200182805460018160011615610100020316600290048015610b2e5780601f10610b0357610100808354040283529160200191610b2e565b820191906000526020600020905b815481529060010190602001808311610b1157829003601f168201915b5050505050815250509050806000015181602001518260400151819150809050935093509350509193909250565b600060608060008060011515610b723388610712565b15151415610d4657600360008781526020019081526020016000209050868160000160006101000a81548173ffffffffffffffffffffffffffffffffffffffff021916908373ffffffffffffffffffffffffffffffffffffffff1602179055508060000160009054906101000a900473ffffffffffffffffffffffffffffffffffffffff1681600101826002016001828054600181600116156101000203166002900480601f016020809104026020016040519081016040528092919081815260200182805460018160011615610100020316600290048015610c965780601f10610c6b57610100808354040283529160200191610c96565b820191906000526020600020905b815481529060010190602001808311610c7957829003601f168201915b50505050509250818054600181600116156101000203166002900480601f016020809104026020016040519081016040528092919081815260200182805460018160011615610100020316600290048015610d325780601f10610d0757610100808354040283529160200191610d32565b820191906000526020600020905b815481529060010190602001808311610d1557829003601f168201915b505050505091509450945094509450610dbf565b8060000160009054906101000a900473ffffffffffffffffffffffffffffffffffffffff1660006040805190810160405280601181526020017f796f7520617265206e6f74206f776e65720000000000000000000000000000008152509060206040519081016040528060008152509094509450945094505b5092959194509250565b828054600181600116156101000203166002900490600052602060002090601f016020900481019282601f10610e0a57805160ff1916838001178555610e38565b82800160010185558215610e38579182015b82811115610e37578251825591602001919060010190610e1c565b5b509050610e459190610e81565b5090565b606060405190810160405280600073ffffffffffffffffffffffffffffffffffffffff16815260200160608152602001606081525090565b610ea391905b80821115610e9f576000816000905550600101610e87565b5090565b905600a165627a7a72305820ca6322eed909d2294664b52c4ad64056cb1b8b1d689895dd4c71df3d3f60850d0029",
  "source": "pragma solidity ^0.4.18;\n\ncontract Bikes {\n    string public name = 'Bicyle List';    \n    address public storeOwner;\n    uint256 nextRecNum;\n    struct bikeRec {\n        address currOwner;\n        string mfg;\n        string serialNum;\n    }\n\n    //make an array of the custom struct \n    mapping ( uint256 => bikeRec ) bikeRecAll; \n    string[] bikeRecList;  //not really used but can use to count records\n    //bikeRec[] public bikeRecList;\n\n    // address[] public ownerList;\n    // bytes32[] public mfgList;\n    // bytes32[] public snList;\n    \n\n    constructor(){\n        //store owner is the first person on the chain\n        storeOwner = msg.sender;\n        nextRecNum = 0;\n    }\n\n\n    function setBike_rec( string _mfg, string _sn) external returns(uint256 _recNum){\n        //require( msg.sender == storeOwner );\n        //require( (bytes(_mfg).length<=50) && (bytes(_sn).length<=50) );\n        uint256 recNum = nextRecNum++;\n        //next line returns a pointer to the location to write to\n        //it should automatically generate a new address based on the mapping\n        /* this is old way of doing\n        bikeRec newBikeRec = bikeRecAll[ recNum ];\n        newBikeRec.currOwner = msg.sender;\n        newBikeRec.mfg = _mfg;\n        newBikeRec.serialNum = _sn;\n        nextRecNum++;\n        */\n        //try now with constructor\n        bikeRecAll[recNum] = bikeRec( msg.sender, _mfg, _sn );\n        return recNum;\n    }   \n    \n\n    function getBike_rec( uint256 _recNum ) view external returns( address, string, string) {\n        require( _recNum <= nextRecNum );\n        bikeRec memory br = bikeRecAll[_recNum];\n        return ( br.currOwner, br.mfg, br.serialNum );\n    }\n\n\n    function transfer(address _to, uint256 _recNum ) external returns(address, string, string, bool){\n        if ( isPersonOwner( msg.sender, _recNum  ) == true ) {\n            //person is valid owner\n            //only need to change the owner everything else stays the same\n            bikeRec storage br = bikeRecAll[_recNum];\n            br.currOwner = _to;\n            return ( br.currOwner, br.mfg, br.serialNum, true );\n        } else {\n            return( br.currOwner, 'you are not owner', '', false );\n        }\n    }\n\n\n    function isPersonOwner( address _to, uint256 _recNum ) public view returns(bool) {        \n\n        if ( _recNum < bikeRecList.length  ) {\n            return false;\n        }\n        bikeRec memory br = bikeRecAll[_recNum];\n\n        if ( br.currOwner == _to  ) {\n            return true;\n        }\n        return false;\n    }\n\n    function getBikesCount() public view returns (uint256) {\n        return nextRecNum;\n    }\n}\n",
  "sourcePath": "/Users/richardbudek/Documents/Data/Proj-Blockchain/git_location/BC_BikeTracker/contracts/Bikes.sol",
  "compiler": {
    "name": "solc",
    "version": "0.4.23+commit.124ca40d.Emscripten.clang"
  },
  "schemaVersion": "2.0.0",
  "updatedAt": "2018-05-14T20:31:18.200Z"
}